:020000006E2967
:1000060083120313F801F9011030FC00710DF80D8D
:10001600F90D7408F8027508031C750FF902031828
:100026001B287408F80775080318750FF9070310DD
:0A003600F00DF10DFC0B0928080085
:100040000E3083120313FD00FD0B2428000008006E
:100050008316031398182E280000282883124608B8
:0400600099000800FB
:1000640083120313C90105304902031840284908C3
:100074004807840020308000C90A35284908480709
:1000840084008001C90349084807CA000A30F40003
:10009400F5014608F0004708F10003207808F00055
:1000A4007908F1003030F0074A08840070088000B5
:1000B4000A30F400F5014608F0004708F100032077
:1000C4007008C6007108C70000307106031D6C2853
:1000D40000307006031D6F287128C90345280800E5
:0E00E4008312031333088A00320882000800DA
:1000F200831603139816903083129800831687177D
:10010200071383128C1E88281A08F0008228080020
:10011200831203139F01C0309F043009F00070085E
:1001220083169F051F179F1783123D08F000F00DDD
:100132007010F00D7010F00D701070089F041F14F5
:1001420020201F151F1DA7280000A3281F101E080E
:10015200F100F00183161E08F0040030F1040800DB
:10016200FF3083120313BA00FF30BB00FF30BC0024
:10017200FF309F01C0309F043009F00070088316E1
:0C0182009F051F179F1783121F14080011
:10018E00831203133D08F2007208F100F20A3E08D2
:10019E00F000BE0A700884000008F00071088400A8
:1001AE00700880007108840000080319DF28CB282E
:0601BE003D08F0000800FE
:1001C40083120313BF013D0884000008BE003E08EB
:1001D400003A0319F7283E08C6002820BF0A3F0842
:0C01E4003D0784000008BE00E928080068
:1001F00083120313C201C3013D08C4003E08C500B9
:1002000080303E06F00080307002031D0929003066
:100210003D02031817290130C2000030C3003D0819
:10022000003CC4003E08031C013EC501C502440851
:10023000C6004508C7003F08C80032200630C0008D
:100240000030C1004108003C031D28294008003C43
:100250000318432940083F07F20001304002F00034
:100260000030031C013E4102F10070083F0784008A
:100270000008F00072088400700880000130C0029D
:10028000031CC10322293F0884002030800042085B
:10029000430403196129C001C10140083F078400DC
:1002A0000008203A031D5829C00A0319C10A4D2924
:1002B0000130C002031CC10340083F0784002D30F9
:0402C00080000800B2
:1002C40072208A110A128000840AB20A0319B30A3E
:0802D400F003031D622908007C
:1002DC00BA21333083160313990018157920B120F5
:1002EC00BD01892070088312B4007108B500700834
:1002FC00BD007108BE003630BF00F8202030BD00B4
:10030C00E2203630BD00E2203630BD003130BE0078
:10031C00C7200D30C60028200B30FB002630FC0017
:10032C005D30FD00FD0B9829FC0B9829FB0B9829DF
:08033C00000000007629A12950
:1003740020308400123083120313F000A730B2003F
:080384000130B3006221080002
:10034E0041346E3461346C346F3467342034763417
:10035E0061346C347534653420343D3420340034CB
:02036E000F344A
:02037000003457
:02400E004A2F37
:00000001FF
