:020000001628C0
:0E000600831203132B088A002A0882000800C8
:1000140003208A110A128000840AAA0A0319AB0A6F
:08002400F003031D0A28080087
:10002C00C03083120313A000F930A100A430A20049
:10003C00B030A3009930A4009230A5008230A60005
:10004C00F830A7008030A8009030A900AC01AD01B9
:10005C0083168601FF30880083122C08203E840012
:10006C0000088600081C56280330FB000830FC00F2
:10007C007730FD00FD0B4028FC0B4028FB0B402883
:10008C00081C562880302D06F00080307002031DAD
:10009C00512809302C0203185628AC0A0319AD0A52
:1000AC00881C75280330FB000830FC007730FD00FD
:1000BC00FD0B5E28FC0B5E28FB0B5E28881C75284C
:1000CC008030F00080302D067002031D6F282C0844
:1000DC00093C031C75280130AC02031CAD0332280B
:0200EC00762874
:02400E004A2F37
:00000001FF
