:02000000AB282B
:10000600710DF80DF90D7408F8027508031C750FCB
:10001600F902F00DF10D0F30FC00710DF80DF90D20
:100026007408701C1C28F8027508031C750FF90269
:100036002128F80775080318750FF907F00DF10D5B
:10004600FC0B102870182D287408F807750803187B
:08005600750FF9070000080016
:0E005E00831203132B088A002A088200080070
:10006C002F208A110A128000840AAA0A0319AB0AEB
:08007C00F003031D3628080003
:10008400831203137408003A031D51287508003ABB
:10009400031D5128FF30F0007F30F100AA2883129D
:1000A4000313FD01F901F801710870040319003408
:1000B40071087506FA00FA1BFD09FB01F51F672894
:1000C400F409F509F40A0319F50AF11F6E28F00979
:1000D400F109F00A0319F10A71087504FA00FA1B10
:1000E400832803207B189628FD1F0034F009F109AA
:1000F400F00A0319F10AF809F909F80A0319F90AC7
:100104000034F51F9228F11B8E287108F90070083D
:10011400F800F101F0017628F101F001F00A003451
:10012400F109F009FB0A7328F80A0319F90A74089B
:100134007802031D762875087902031D7628F901D3
:10014400F801F00A0319F10AF11F76280000FF34C0
:020154000800A1
:100156003F3083120313A0000630A1005B30A200DB
:100166004F30A3006630A4006D30A5007D30A60098
:100176000730A7007F30A8006F30A90083168601DC
:100186008701831286018701AC01AD0180302D06FF
:10019600F00080307002031DD22864302C02031850
:1001A60029290A30F4000030F5002C08F0002D084B
:1001B600F10042207008B0007108B1000A30F40066
:1001C6000030F5002C08F0002D08F10042207808D8
:1001D600F0007908F1007008B2007108B300AE01B2
:1001E600AF0180302F06F00080307002031DFD281D
:1001F60032302E020318252907103008203E8400CD
:10020600000886000D30FC00FB30FD00FD0B0929BF
:10021600FC0B092900000000071487103208203E55
:100226008400000886000D30FC00FB30FD00FD0B4D
:100236001A29FC0B1A29000000008714AE0A0319BC
:10024600AF0AF428AC0A0319AD0AC928C7282A2917
:02400E004A2F37
:00000001FF
