:02000000762860
:1000060083120313FB01FA01F9018030F800F10CA9
:10001600F00C031C17287408F90775080318750FE8
:10002600FA070318FB0A0310F01F1F287408FA07C3
:1000360075080318750FFB07FB0CFA0CF90CF80C86
:10004600031C0A287B08F3007A08F2007908F100FD
:060056007808F00008002C
:0C005C008312031395011712971208007D
:10006800831603130711831212150C309704080026
:10007800831603131208013EF000F1010318F10A78
:1000880083122308F400F50103200630F2007008FB
:10009800F4007108F500720803195728F50CF40CE0
:1000A800F513FF3E50280430F1007408F000710881
:1000B80003196228F00D7010FF3E5C28303070057F
:1000C800F3007408F0007508F100F10CF00CF1135E
:1000D800F10CF00CF113700895000F3097057308B8
:0400E8009704080071
:1000EC0083120313A2010F3083168800860183123A
:1000FC0006148610121492147C30831692002E2053
:10010C0034202208A3003C20881CA3280230FB00CA
:10011C000430FC00BA30FD00FD0B9228FC0B922839
:10012C00FB0B92280000881CA32814302207F00037
:10013C007008A2007008A3003C20081CBD280230E7
:10014C00FB000430FC00BA30FD00FD0BAB28FC0BAF
:10015C00AB28FB0BAB2800000814081CBD2814307E
:10016C002202F0007008A2007008A3003C208A282C
:02017C00BE289B
:02400E004A2F37
:00000001FF
