:02000000A42832
:1000060083120313881C22280230FB008630FC0072
:100016009930FD00FD0B0D28FC0B0D28FB0B0D2860
:10002600881C2228B60A0319B70A00303706031DB2
:100036001E280A303606031D2228B601B7013608E7
:08004600F0003708F10008008A
:0E004E008312031335088A003408820008006C
:10005C0027208A110A128000840AB40A0319B50AEF
:08006C00F003031D2E2808001B
:1000740083120313081C5A280230FB000430FC00CE
:10008400BA30FD00FD0B4428FC0B4428FB0B44282C
:100094000000081C5A28AE0A0319AF0A00302F06C4
:1000A400031D562804302E06031D5A28AE01AF0145
:1000B40083283008B6003108B70003207008B00068
:1000C4007108B100A3283208B6003308B700032032
:1000D4007008B2007108B300A3282008B6002108F4
:1000E400B70003207008A0007108A100A32822080B
:1000F400B6002308B70003207008A2007108A3000B
:10010400A32800302F06031D892800302E0603196A
:100114005B2800302F06031D912801302E06031999
:10012400652800302F06031D992802302E06031976
:100134006F2800302F06031DA12803302E06031953
:04014400792808000E
:1001480083120313A001A101A201A3013F30A4005F
:100158000630A5005B30A6004F30A7006630A80027
:100168006D30A9007D30AA000730AB007F30AC00AD
:100178006F30AD00AE01AF01B001B101B201B30102
:10018800831686018701FF30880083128601870164
:100198003A2007103008243E8400000886001A30F0
:1001A800FC00F830FD00FD0BD728FC0BD728000019
:1001B800071487103208243E8400000886001A308D
:1001C800FC00F830FD00FD0BE728FC0BE7280000D9
:1001D800871407112008243E8400000886001A307E
:1001E800FC00F830FD00FD0BF728FC0BF728000099
:1001F800071587112208243E8400000886001A305B
:10020800FC00F830FD00FD0B0729FC0B0729000056
:060218008715CC280E2919
:02400E004A2F37
:00000001FF
