:020000001628C0
:0E000600831203132A088A00290882000800CA
:1000140003208A110A128000840AA90A0319AA0A71
:08002400F003031D0A28080087
:10002C00863083120313A000DB30A1008F30A200B6
:10003C00E630A300ED30A400FD30A5008730A6000B
:10004C00FF30A700EF30A8008316860183128601CB
:10005C00F101F20180307206F00080307002031D55
:10006C0039280A307102031852287108203E840086
:10007C00000886000B30FB002630FC005D30FD00D4
:10008C00FD0B4628FC0B4628FB0B46280000000005
:0A009C00F10A0319F20A3028522875
:02400E004A2F37
:00000001FF
