:02000000752861
:1000060083120313F101F20100307202031D0D2861
:10001600323071020318282806140330FC0012300F
:10002600FD00FD0B1428FC0B1428000006103230CE
:10003600FC00DD30FD00FD0B1E28FC0B1E28000019
:0C0046000000F10A0319F20A0728080064
:1000520083120313F101F20100307202031D3328EF
:100062003230710203184E2806140630FC00B530F7
:10007200FD00FD0B3A28FC0B3A2800000000061098
:100082002F30FC003A30FD00FD0B4528FC0B4528C3
:0C0092000000F10A0319F20A2D280800F2
:10009E0083120313F101F20100307202031D59287D
:1000AE00323071020318742806140430FC00E43058
:1000BE00FD00FD0B6028FC0B60280000061031309F
:1000CE00FC000B30FD00FD0B6A28FC0B6A280000BB
:0C00DE000000F10A0319F20A5328080080
:1000EA0083160313860103201530FB004B30FC00F6
:1000FA00BE30FD00FD0B7F28FC0B7F28FB0B7F2801
:10010A0000004F201530FB004B30FC00BE30FD00D4
:10011A00FD0B8D28FC0B8D28FB0B8D280000292058
:04012A007828962873
:02400E004A2F37
:00000001FF
