:02000000432893
:0E000600831203132B088A002A0882000800C8
:1000140003208A110A128000840AAA0A0319AB0A6F
:08002400F003031D0A28080087
:10002C00831603178C1C1C2800001628831203133C
:10003C002E0803178D0003132F0803178C0083164B
:10004C008C130C150B08F0008B1355308D00AA3057
:10005C008D008C14F01B34288B1335288B170C1146
:02006C0008008A
:10006E00831203132E0803178D0083168C130C14A2
:08007E0083120C08F0000800D9
:10008600C03083120313A000F930A100A430A200EF
:10009600B030A3009930A4009230A5008230A600AB
:1000A600F830A7008030A8009030A900831686019A
:1000B600FF3088008312AE01372070080313AC00AE
:1000C600AD0180302D06F00080307002031D6D28D2
:1000D60000302C02031C7B288030F00080302D0677
:1000E6007002031D78282C08093C031C7B287D28F8
:1000F600AC01AD012C08203E840000088600831266
:100106000313081CB4280330FB000830FC007730CA
:10011600FD00FD0B8C28FC0B8C28FB0B8C28081C87
:10012600B42880302D06F00080307002031D9D2813
:1001360009302C020318B428AC0A0319AD0A2C089E
:10014600203E840000088600AE012C08AF00162071
:100156001A30FC00F830FD00FD0BAF28FC0BAF2871
:10016600000083120313881CE7280330FB000830C5
:10017600FC007730FD00FD0BBE28FC0BBE28FB0BF8
:10018600BE28881CE7288030F00080302D067002DB
:10019600031DCF282C08003C0318E7280130AC02C9
:1001A600031CAD032C08203E840000088600AE0127
:1001B6002C08AF0016201A30FC00F830FD00FD0BAD
:0C01C600E228FC0BE22800008228E82858
:02400E004A2F37
:00000001FF
