:02000000982D39
:0E000600F201F101F001F801F30100300800F1
:10001400FB14FB1F1428FF30F300F200F100F00082
:08002400FA0DF20CFF30080098
:10002C0083120313F801F9011030FC00710DF80D67
:10003C00F90D7408F8027508031C750FF902031802
:10004C002E287408F80775080318750FF9070310A4
:0A005C00F00DF10DFC0B1C2808004C
:100066007B15FB1F3D280130F300F201F101F00181
:08007600FA0DF20CFF30080046
:08007E00FA1FF2130030080024
:1000860083120313FB017308031D770803199A28CB
:1000960072087606FA007708F3077E30031C5728A5
:1000A600F30203189D285A28F302031CA02872089D
:1000B600F8007108FC007008FD00F817F617031029
:1000C600F201F101F0011830A0007D1C74287408BB
:1000D600F00775080318750FF10776080318760FF1
:1000E600F207F20CF10CF00CF80CFC0CFD0C0310F2
:1000F600A00B6828F21B8428F80DF00DF10DF20D07
:10010600F3037B1B701C9628F81F9628F00A031928
:10011600F10A0319F20A031D9628F20CF10CF00CF1
:10012600F30A03199D28FA1FF2130030A2280130A2
:100136000320A22802300A20A2280430332000001F
:020146000800AF
:10014800831203136608F2007208F100F20A6708C6
:10015800F000E70A700884000008F00071088400C5
:10016800700880007108840000080319BC28A828BA
:060178006608F00008001B
:10017E00A0017208031DD4287108F2007008F10066
:10018E00F001A0157208031DD4287108F200F101C8
:10019E00A011201672080319E2282008F302031D8D
:1001AE00031CE6280310F21BEA28F00DF10DF20DE8
:1001BE00F30BDA28E6280130FC000320ED2802308C
:0E01CE00FC003320ED280430FC003F20080028
:1001DC0083120313FA017308031D7A147708031DA5
:1001EC00FA147A0803193A29033A031905297A18DB
:1001FC000229F61F38293629F21F362938297208A8
:10020C008039FA00F21376088039F6137A0603194E
:10021C0013297A0803193629382977087302031928
:10022C001A29031C2E293229760872020319212956
:10023C00031C2E2932297508710203192829031C65
:10024C002E2932297408700203193A29031832290D
:10025C00FA08031938293629FA08031936293829D6
:10026C000314080003100800031403150800080009
:06027C00FB15FF30080035
:100282000E3083120313FD00FD0B45290000080008
:100292008316031398184F29000049298312660810
:0402A20099000800B7
:1002A60083120313E90105306902031861296908FD
:1002B6006807840020308000E90A56296908680723
:1002C60084008001E90369086807EA000A30F4003F
:1002D600F5016608F0006708F10016207808F000BE
:1002E6007908F1003030F0076A0884007008800051
:1002F6000A30F400F5016608F0006708F1001620E0
:100306007008E6007108E70000307106031D8D29AC
:1003160000307006031D90299229E903662908001A
:1003260083120313FD01F8017008031900347406E3
:10033600FA00FA1BFD09FB01F41FA329F409F40ACC
:10034600F01FA729F009F00A70087404FA00FA1BD6
:10035600CB297408F802F00D700DF80D7408F80733
:10036600F00D0630FC00700DF80D74087018F802D8
:10037600701CF807F00DFC0BB629701CF8077B18EB
:10038600D929FD1F0034F009F00AF809F80A0034EB
:10039600F41FD629F01BD3297008F800F001C429F0
:1003A600F001F00A0034F009FB0AAC29F80A7408D7
:1003B6007802031DC429F801F00AF01FC429FF348E
:0203C60008002D
:0E03C8008312031351088A00500882000800B7
:1003D60083120313DE01DF015908E0005A08E10029
:1003E60080305A06F00080307002031DFC29003070
:1003F600590203180A2A0130DE000030DF005908CE
:10040600003CE0005A08031C013EE101E1026008DD
:10041600E6006108E7005B08E80053210630DC00CF
:100426000030DD005D08003C031D1B2A5C08003C13
:100436000318362A5C085B07F20001305C02F00004
:100446000030031C013E5D02F10070085B0784006A
:100456000008F00072088400700880000130DC0299
:10046600031CDD03152A5B088400203080005E082B
:100476005F040319542ADC01DD015C085B07840074
:100486000008203A031D4B2ADC0A0319DD0A402A1C
:100496000130DC02031CDD035C085B0784002D30A1
:0404A60080000800CA
:1004AA0083120313E401E5015908E0005A08E10048
:1004BA005B08E2005C08E3006308FF3A031D6F2A49
:1004CA006208FF3A031D6F2A6108FF3A031D6F2A6B
:1004DA006008FF3A031D792A5D08E6002830E70024
:1004EA00A4200330F000522C0130DE00E21F882ADB
:1004FA0080306206F0007008E200DE0A5D088400BF
:10050A002D308000DD0A0030F0006306031D972AB3
:10051A0070086206031D972A70086106031D972A50
:10052A006008003A031DA02A5D08E6002C30E700A7
:10053A00A420F001522C6308FF3A031DAE2A620878
:10054A00003A031DAE2A6108003A031DAE2A60086C
:10055A00003A031DB82A5D08E6002E30E700A42001
:10056A005E08F000522C0030F4000030F500003034
:10057A00F6007F30F7006008F0006108F1006208B9
:10058A00F2006308F300EE20013003180030F00097
:10059A0070080319EB2A6008F0006108F10062088C
:1005AA00F2006308F3000030F4000030F500203058
:1005BA00F6008230F70043207008E0007108E1007D
:1005CA007208E2007308E300E503B82A0030F40079
:1005DA000030F5002030F6008230F7006008F000A5
:1005EA006108F1006208F2006308F300EE200130AE
:1005FA00031C0030F000700803191E2B6008F0007D
:10060A006108F1006208F2006308F300CD30F400DB
:10061A00CC30F5004C30F6007B30F70043207008F0
:10062A00E0007108E1007208E2007308E300E50ADD
:10063A00EB2AFF306005F800FF306105F9007F30D2
:10064A006205FA0000306305FB007808F4007908B7
:10065A00F5007A08F6007B08F700F40DF50DF60DA3
:10066A00F70D741000306005F00000306105F100EC
:10067A0000306205F200FF306305F3007008E00005
:10068A007108E1007208E2007308E300740860046C
:10069A00F00075086104F10076086204F200770838
:1006AA006304F3007008E0007108E1007208E200D8
:1006BA007308E3007F306302F0007008DF00013046
:1006CA00E3007008F4006008F0006108F1006208B5
:1006DA00F2006308F300740803197A2BF00DF10D88
:1006EA00F20DF30D7010FF3E712B7008E0007108D7
:1006FA00E1007208E2007308E3006308303EF0008C
:10070A005D08840070088000DD0A80306506F0000C
:10071A008030013A7002031C9B2B8030063AF000AD
:10072A00803065067002031C9B2BA22B5D08840097
:10073A002E308000DD0A0130E4000630DF005F0859
:10074A00003A0319002CE3016008F0006108F10087
:10075A006208F2006308F300F00DF10DF20DF30DDB
:10076A007010F00DF10DF20DF30D70106008F00726
:10077A0061080318610FF10762080318620FF20794
:10078A0063080318630FF3077008E0007108E100BB
:10079A007208E2007308E3006008F0006108F100E3
:1007AA006208F2006308F300F00DF10DF20DF30D8B
:1007BA0070107008E0007108E1007208E200730826
:1007CA00E3006308303EF0005D0884007008800092
:1007DA00DD0A6408003A031DFE2BE5036508003AAA
:1007EA00031DFE2B5D0884002E308000DD0A0130D7
:1007FA00E400DF03A42BFF305D0784000008303AD1
:10080A00031D092CDD03002CFF305D07840000085E
:10081A002E3A031D112CDD036508003A03194E2CEC
:10082A005D08840065308000DD0A80306506F000CE
:10083A008030003A700203182A2C5D0884002D309B
:10084A008000DD0A6508003CE5006508DF008030AD
:10085A00093AF0008030650670020318402C0A300D
:10086A00F4005F08F00093213030F0075D0884003F
:10087A0070088000DD0A0A30F4005F08F000932156
:10088A007808F0003030F0075D08840070088000B6
:0C089A00DD0A5D0884008001F001080008
:1008A600831203137408003A031D6E2C7508003A70
:1008B600031D6E2C7608003A031D6E2C7708003A4D
:1008C600031D6E2CFF30F000FF30F1007F30F20088
:1008D600FF30F300092D8312031377080319FD2C4B
:1008E60073080319002D720876068039FA00F2178C
:1008F600F617A0017208F8007108FC007008FD00E8
:100906007408FD027508031C750FFC027608031CAB
:10091600760FF802F801FC01FD01031C992C031067
:10092600F20CF10CF00CF80C0130A0007708F30281
:10093600031CA32C7E302007F3070318032DA82CD5
:100946007E302007F307031C062D1830FA07FD0D2D
:10095600FC0DF80DF00DF10DF20DA00D7408F0026E
:100966007508031C750FF1027608031C760FF20258
:10097600760DA004201CC12C7D14CC2C7408F00725
:1009860075080318750FF10776080318760AF2073B
:100996007D10FA031F307A05031DAA2C7B1B7D1CD4
:1009A600F32C0310F00DF10DF20DA00D7408F002FA
:1009B6007508031C750FF1027608031C760FF20208
:1009C600760D20040139FD070318FC0A0319F80AFD
:1009D600031DF32CF80CFC0CFD0CF30A0319032D74
:1009E600FA1FF8137808F2007C08F1007D08F00081
:1009F6000030082D01303E21082D02300320082D3D
:0E0A060004300A20082D0830332000000800BC
:100A1400831203137008F8007108F000F101F20169
:100A2400F301FB01FC019630F300FA01F01F202DC5
:100A3400F809F009F80A0319F00AFA177008F10026
:0C0A44007808F000F801F201BF20080063
:100A500083120313DB01590884000008DA005A08E6
:100A6000003A03193D2D5A08E6004921DB0A5B08CC
:0C0A7000590784000008DA002F2D080050
:100A7C0083160313981690308312980083168717E9
:100A8C00071383128C1E4D2D1A08F000472D0800F9
:100A9C00831203139F01C0309F043209F0007008C9
:100AAC0083169F051F179F1783125908F000F00D2E
:100ABC007010F00D7010F00D701070089F041F1462
:100ACC0041211F151F1D6C2D0000682D1F101E08C5
:100ADC00F100F00183161E08F0040030F104080048
:100AEC00FF3083120313D400FF30D500FF30D60043
:100AFC00FF309F01C0309F043209F000700883164C
:0C0B0C009F051F179F1783121F1408007D
:100B1800E4218A110A128000840AD00A0319D10A32
:080B2800F003031D8C2D0800F1
:100B30003626333083160313990018153E25762583
:100B4000D9014E2570088312D7007108D8005708C4
:100B5000D2005808D3005708F0005808F1000A25C1
:100B60000030F4000030F5002030F6008130F7004E
:100B700043200030F400C030F5007F30F6008830AC
:100B8000F70053247008CC007108CD007208CE0025
:100B90007308CF005708D9005808DA004530DB0049
:100BA000EB212130D90028254530D90028250D30EA
:100BB000E60049210B30FB002630FC005D30FD00D3
:100BC000FD0BE02DFC0BE02DFB0BE02D00000000E9
:100BD0004C08D9004D08DA004E08DB004F08DC0055
:100BE0004530DD0055223330D90028254530D90065
:100BF00028250D30E60049210B30FB002630FC0093
:100C00005D30FD00FD0B022EFC0B022EFB0B022EB5
:080C100000000000A02D0B2ED6
:100C6C0021308400243083120313F0001130D000A3
:080C7C000630D1008C250800B0
:0E0C220041344434433420343D342034003413
:080C30004E3461344E340034EF
:040C38003034003420
:080C3C0049344E344634003403
:020C44000F346B
:100C4600413463347434753461346C34203476340E
:100C56006F346C34743461346734653420343D3415
:040C66002034003402
:02400E004A2F37
:00000001FF
