:020000000328D3
:10000600831603138801FF308312880003308800AB
:100016000630FB001330FC00AD30FD00FD0B11284F
:10002600FC0B1128FB0B112800000000063088008D
:100036000630FB001330FC00AD30FD00FD0B21281F
:10004600FC0B2128FB0B2128000000000C30880047
:100056000630FB001330FC00AD30FD00FD0B3128EF
:10006600FC0B3128FB0B312800000000093088000A
:100076000630FB001330FC00AD30FD00FD0B4128BF
:10008600FC0B4128FB0B41280000000009284A28E8
:02400E004A2F37
:00000001FF
