:02000000B72D1A
:06000600000000000800EC
:10000C000F3083120313FC004730FD00FD0B0C284E
:0A001C00FC0B0C2800000000080097
:0E002600213083120313FD00FD0B1728080084
:100034007B15FB1F24280130F300F201F101F001CC
:08004400FA0DF20CFF30080078
:10004C00FB14FB1F3028FF30F300F200F100F0002E
:08005C00FA0DF20CFF30080060
:0E006400F201F101F001F801F3010030080093
:08007200FA1FF2130030080030
:10007A0083120313DE1B43288612442886165E1B4E
:10008A004828061249280616DE1A4D2886114E28D7
:10009A0086155E1A5228061153280615481857283D
:1000AA00061458280610861403208610DE195F28C5
:1000BA008612602886165E196428061265280616B6
:1000CA00DE18692886116A2886155E186E280611B8
:1000DA006F28061548187328061474280610861403
:1000EA0003208610481C7B2806207C281320080041
:1000FA0083120313FA017308031D7A147708031D88
:10010A00FA147A080319C928033A031994287A18A1
:10011A009128F61FC728C528F21FC528C7287208C4
:10012A008039FA00F21376088039F6137A06031931
:10013A00A2287A080319C528C72877087302031961
:10014A00A928031CBD28C128760872020319B02801
:10015A00031CBD28C128750871020319B728031C9E
:10016A00BD28C128740870020319C9280318C128B8
:10017A00FA080319C728C528FA080319C528C72881
:10018A0003140800031008000314031508000800EC
:06019A00FB15FF30080018
:1001A00083120313FB017308031D77080319272922
:1001B00072087606FA007708F3077E30031CE428FD
:1001C000F30203182A29E728F302031C2D297208D9
:1001D000F8007108FC007008FD00F817F61703100E
:1001E000F201F101F0011830A0007D1C0129740812
:1001F000F00775080318750FF10776080318760FD6
:10020000F207F20CF10CF00CF80CFC0CFD0C0310D6
:10021000A00BF528F21B1129F80DF00DF10DF20DD0
:10022000F3037B1B701C2329F81F2329F00A0319F1
:10023000F10A0319F20A031D2329F20CF10CF00C48
:10024000F30A03192A29FA1FF21300302F2901306B
:1002500032202F29023026202F2904301A200000B6
:02026000080094
:100262000E3083120313FD00FD0B35290000080038
:1002720083120313FD01F801700803190034740698
:10028200FA00FA1BFD09FB01F41F4929F409F40ADB
:10029200F01F4D29F009F00A70087404FA00FA1BE5
:1002A20071297408F802F00D700DF80D7408F80742
:1002B200F00D0630FC00700DF80D74087018F8028D
:1002C200701CF807F00DFC0B5C29701CF8077B18FA
:1002D2007F29FD1F0034F009F00AF809F80A0034FA
:1002E200F41F7C29F01B79297008F800F0016A29B3
:1002F200F001F00A0034F009FB0A5229F80A7408E6
:100302007802031D6A29F801F00AF01F6A29FF34F6
:020312000800E1
:100314008312031348105C08DE003D2048140800D3
:10032400831203135C08F2007208F100F20A5D08FC
:10033400F000DD0A700884000008F00071088400F1
:10034400700880007108840000080319AA299629FE
:060354005C08F000080047
:10035A00A0017208031DC2297108F2007008F10099
:10036A00F001A0157208031DC2297108F200F101FB
:10037A00A011201672080319D0292008F302031DC0
:10038A00031CD4290310F21BD829F00DF10DF20D2C
:10039A00F30BC829D4290130FC003220DB290230B2
:0E03AA00FC001A20DB290430FC00392008007A
:0E03B800831203134A088A00490882000800D5
:1003C60083120313DA01DB014F08D6005008D70069
:1003D6005108D8005208D9005908FF3A031DFD29D3
:1003E6005808FF3A031DFD295708FF3A031DFD294A
:1003F6005608FF3A031D072A5308DC002130DD00AA
:1004060092210330F000E02B0130D400D81F162AC9
:1004160080305806F0007008D800D40A53088400CB
:100426002D308000D30A0030F0005906031D252A1E
:1004360070085806031D252A70085706031D252A2D
:100446005608003A031D2E2A5308DC002630DD002C
:100456009221F001E02B5908FF3A031D3C2A580867
:10046600003A031D3C2A5708003A031D3C2A560849
:10047600003A031D462A5308DC002830DD0092218D
:100486005408F000E02B0030F4000030F500003096
:10049600F6007F30F7005608F0005708F1005808BC
:1004A600F2005908F3007D20013003180030F000F7
:1004B60070080319792A5608F0005708F100580801
:1004C600F2005908F3000030F4000030F500203047
:1004D600F6008230F700D0207008D6007108D700E9
:1004E6007208D8007308D900DB03462A0030F400EE
:1004F6000030F5002030F6008230F7005608F00094
:100506005708F1005808F2005908F3007D20013021
:10051600031C0030F00070080319AC2A5608F000DE
:100526005708F1005808F2005908F300CD30F400DE
:10053600CC30F5004C30F6007B30F700D020700848
:10054600D6007108D7007208D8007308D900DB0AF4
:10055600792AFF305605F800FF305705F9007F303D
:100566005805FA0000305905FB007808F4007908B0
:10057600F5007A08F6007B08F700F40DF50DF60D88
:10058600F70D741000305605F00000305705F100E5
:1005960000305805F200FF305905F3007008D60008
:1005A6007108D7007208D8007308D9007408560479
:1005B600F00075085704F10076085804F200770831
:1005C6005904F3007008D6007108D7007208D800E5
:1005D6007308D9007F305902F0007008D500013049
:1005E600D9007008F4005608F0005708F1005808C2
:1005F600F2005908F30074080319082BF00DF10DE9
:10060600F20DF30D7010FF3EFF2A7008D600710838
:10061600D7007208D8007308D9005908303EF00098
:100626005308840070088000D30A80305B06F0000F
:100636008030013A7002031C292B8030063AF00004
:1006460080305B067002031C292B302B5308840074
:100656002E308000D30A0130DA000630D500550866
:10066600003A03198E2BD9015608F0005708F100FD
:100676005808F2005908F300F00DF10DF20DF30DD4
:100686007010F00DF10DF20DF30D70105608F00715
:1006960057080318570FF10758080318580FF207A1
:1006A60059080318590FF3077008D6007108D700C8
:1006B6007208D8007308D9005608F0005708F100F0
:1006C6005808F2005908F300F00DF10DF20DF30D84
:1006D60070107008D6007108D7007208D800730829
:1006E600D9005908303EF000530884007008800095
:1006F600D30A5A08003A031D8C2BDB035B08003A29
:10070600031D8C2B530884002E308000D30A013041
:10071600DA00D503322BFF30530784000008303A45
:10072600031D972BD3038E2BFF305307840000083D
:100736002E3A031D9F2BD3035B08003A0319DC2BCB
:100746005308840065308000D30A80305B06F000D1
:100756008030003A70020318B82B530884002D30FD
:100766008000D30A5B08003CDB005B08D5008030C4
:10077600093AF00080305B0670020318CE2B0A306F
:10078600F4005508F00039213030F0075308840092
:1007960070088000D30A0A30F4005508F0003921A9
:1007A6007808F0003030F0075308840070088000A5
:0C07B600D30A530884008001F001080001
:1007C200F32B803083120313CF00062CC030CF00EE
:1007D200062C9430CF00062CD430CF00062C80306B
:1007E200CF00062C831203134F08013A0319E22BA0
:1007F2004F08023A0319E72B4F08033A0319EA2B71
:100802004F08043A0319ED2BF02B5003F0004F0868
:10081200F0077008CF0048147008DE003D20481031
:0A0822005108DE003D2048140800D4
:10082C00282C803083120313CF003B2CC030CF0018
:10083C003B2C9430CF003B2CD430CF003B2C803061
:10084C00CF003B2C831203134F08013A0319172CCA
:10085C004F08023A03191C2C4F08033A03191F2C9A
:10086C004F08043A0319222C252C5003F0004F0892
:10087C00F0077008CF007008DE003D204810D20150
:10088C0052085107840000080319542C52085107D0
:10089C0084000008DC008A21D20A462C4814080087
:1008AC00831203137408003A031D712C7508003A67
:1008BC00031D712C7608003A031D712C7708003A41
:1008CC00031D712CFF30F000FF30F1007F30F2007F
:1008DC00FF30F3000C2D8312031377080319002D3E
:1008EC0073080319032D720876068039FA00F21783
:1008FC00F617A0017208F8007108FC007008FD00E2
:10090C007408FD027508031C750FFC027608031CA5
:10091C00760FF802F801FC01FD01031C9C2C03105E
:10092C00F20CF10CF00CF80C0130A0007708F3027B
:10093C00031CA62C7E302007F3070318062DAB2CC6
:10094C007E302007F307031C092D1830FA07FD0D24
:10095C00FC0DF80DF00DF10DF20DA00D7408F00268
:10096C007508031C750FF1027608031C760FF20252
:10097C00760DA004201CC42C7D14CF2C7408F00719
:10098C0075080318750FF10776080318760AF20735
:10099C007D10FA031F307A05031DAD2C7B1B7D1CCB
:1009AC00F62C0310F00DF10DF20DA00D7408F002F1
:1009BC007508031C750FF1027608031C760FF20202
:1009CC00760D20040139FD070318FC0A0319F80AF7
:1009DC00031DF62CF80CFC0CFD0CF30A0319062D68
:1009EC00FA1FF8137808F2007C08F1007D08F0007B
:1009FC0000300B2D0130CD200B2D023032200B2D71
:0E0A0C00043026200B2D08301A2000000800B0
:100A1A0083120313D00150084F07840000080319FA
:100A2A001E2D50084F0784000008DC008A21D00AD6
:040A3A00102D080073
:100A3E00DC218A110A128000840AC90A0319CA0A23
:080A4E00F003031D1F2D080039
:100A560083160313861006100611861106128612D7
:100A660083128610061086120612861106110620BB
:100A760006200620861506158614032086100620F5
:100A8600861403208610062086140320861006206E
:100A9600061186140320861006208614032086106D
:100AA60086118616861403208610062086120615E1
:100AB600861403208610061186140320861006204D
:100AC6008614032086100615861403208610062039
:100AD6000611861403208610861606168615061538
:0C0AE60086140320861006204814080027
:100AF200831203137008F8007108F000F101F2018B
:100B0200F301FB01FC019630F300FA017008F100D9
:0C0B12007808F000F801F201AD210800A5
:100B1E00831203139F01C0309F042509F000700853
:100B2E0083169F051F179F1783124F08F000F00DB5
:100B3E007010F00D7010F00D701070089F041F14DF
:100B4E0031211F151F1DAD2D0000A92D1F101E08D0
:100B5E00F100F00183161E08F0040030F1040800C5
:100B6E003026831603138601FF30850080309F00E8
:100B7E002B250130DE003D200C30DE003D20CF0164
:100B8E008F257925F630F4002830F5001C30F6005C
:100B9E008130F700D0200030F4000030F500203016
:100BAE00F6008230F70056247008CB007108CC0096
:100BBE007208CD007308CE000130CF000130D00096
:100BCE002C30D10016244B08CF004C08D0004D0815
:100BDE00D1004E08D2003830D300E3213830CF0098
:100BEE000D250130CF001030D000DF30D100E123D1
:0A0BFE003430CF000D25C62D032E64
:100C600021308400273083120313F0000930C900BB
:080C70000630CA001F25080030
:080C12004E3461344E3400340D
:020C1A000F3495
:040C1C00303400343C
:080C200049344E34463400341F
:100C2800543465346D34703420343D342034003409
:080C3800203420344334003461
:100C40000034003400340034003400340034003404
:100C500000340034003400340034003400340034F4
:02400E004A2F37
:00000001FF
