:02000000AB282B
:10000600710DF80DF90D7408F8027508031C750FCB
:10001600F902F00DF10D0F30FC00710DF80DF90D20
:100026007408701C1C28F8027508031C750FF90269
:100036002128F80775080318750FF907F00DF10D5B
:10004600FC0B102870182D287408F807750803187B
:08005600750FF9070000080016
:0E005E00831203132B088A002A088200080070
:10006C002F208A110A128000840AAA0A0319AB0AEB
:08007C00F003031D3628080003
:10008400831203137408003A031D51287508003ABB
:10009400031D5128FF30F0007F30F100AA2883129D
:1000A4000313FD01F901F801710870040319003408
:1000B40071087506FA00FA1BFD09FB01F51F672894
:1000C400F409F509F40A0319F50AF11F6E28F00979
:1000D400F109F00A0319F10A71087504FA00FA1B10
:1000E400832803207B189628FD1F0034F009F109AA
:1000F400F00A0319F10AF809F909F80A0319F90AC7
:100104000034F51F9228F11B8E287108F90070083D
:10011400F800F101F0017628F101F001F00A003451
:10012400F109F009FB0A7328F80A0319F90A74089B
:100134007802031D762875087902031D7628F901D3
:10014400F801F00A0319F10AF11F76280000FF34C0
:020154000800A1
:10015600C03083120313A000F930A100A430A2001E
:10016600B030A3009930A4009230A5008230A600DA
:10017600F830A7008030A8009030A9000A30AE0001
:100186000030AF00B001B101B201B30183168601A0
:1001960087018312860187010A30F4000030F500DA
:1001A6002E08F0002F08F10042207008B0007108F8
:1001B600B1000A30F4000030F5002E08F0002F08D8
:1001C600F10042207808F0007908F1007008B200CA
:1001D6007108B300AC01AD0180302D06F00080300F
:1001E6007002031DF8281E302C020318222930083D
:1001F600203E840000088600871407110D30FC009D
:10020600FB30FD00FD0B0529FC0B05290000000055
:1002160087103208203E84000008860007158710E4
:100226000D30FC00FB30FD00FD0B1729FC0B1729D8
:10023600000000000711AC0A0319AD0AEF28AE0A48
:100246000319AF0A8030F00080302F067002031DBC
:100256002E292E08143C031834290A30AE0000302B
:06026600AF00CF2835298E
:02400E004A2F37
:00000001FF
