:020000001628C0
:0E000600831203132B088A002A0882000800C8
:1000140003208A110A128000840AAA0A0319AB0A6F
:08002400F003031D0A28080087
:10002C00403083120313A0007930A1002430A200C9
:10003C003030A3001930A4001230A5000230A60005
:10004C007830A700A8011030A900AC01AD018316CF
:10005C008601FF30880083122C08203E84000008A3
:10006C008600081C532880302D06F000803070026A
:10007C00031D422809302C02031853280230FB00C0
:10008C008630FC009930FD00FD0B4A28FC0B4A28F9
:10009C00FB0B4A28AC0A0319AD0A881C7028803067
:1000AC00F00080302D067002031D5E282C08003CE9
:1000BC00031870280230FB008630FC009930FD00DC
:1000CC00FD0B6628FC0B6628FB0B66280130AC0286
:0800DC00031CAD03312871285B
:02400E004A2F37
:00000001FF
